{
  "contractName": "MaharlikaCoin",
  "abi": [
    {
      "constant": true,
      "inputs": [],
      "name": "name",
      "outputs": [
        {
          "name": "",
          "type": "string"
        }
      ],
      "payable": false,
      "stateMutability": "view",
      "type": "function"
    },
    {
      "constant": false,
      "inputs": [
        {
          "name": "spender",
          "type": "address"
        },
        {
          "name": "value",
          "type": "uint256"
        }
      ],
      "name": "approve",
      "outputs": [
        {
          "name": "",
          "type": "bool"
        }
      ],
      "payable": false,
      "stateMutability": "nonpayable",
      "type": "function"
    },
    {
      "constant": false,
      "inputs": [
        {
          "name": "to",
          "type": "address"
        },
        {
          "name": "value",
          "type": "uint256"
        },
        {
          "name": "_sender",
          "type": "address"
        }
      ],
      "name": "mint",
      "outputs": [
        {
          "name": "",
          "type": "bool"
        }
      ],
      "payable": false,
      "stateMutability": "nonpayable",
      "type": "function"
    },
    {
      "constant": true,
      "inputs": [],
      "name": "totalSupply",
      "outputs": [
        {
          "name": "",
          "type": "uint256"
        }
      ],
      "payable": false,
      "stateMutability": "view",
      "type": "function"
    },
    {
      "constant": false,
      "inputs": [
        {
          "name": "from",
          "type": "address"
        },
        {
          "name": "to",
          "type": "address"
        },
        {
          "name": "value",
          "type": "uint256"
        }
      ],
      "name": "transferFrom",
      "outputs": [
        {
          "name": "",
          "type": "bool"
        }
      ],
      "payable": false,
      "stateMutability": "nonpayable",
      "type": "function"
    },
    {
      "constant": true,
      "inputs": [],
      "name": "decimals",
      "outputs": [
        {
          "name": "",
          "type": "uint8"
        }
      ],
      "payable": false,
      "stateMutability": "view",
      "type": "function"
    },
    {
      "constant": false,
      "inputs": [
        {
          "name": "spender",
          "type": "address"
        },
        {
          "name": "addedValue",
          "type": "uint256"
        }
      ],
      "name": "increaseAllowance",
      "outputs": [
        {
          "name": "success",
          "type": "bool"
        }
      ],
      "payable": false,
      "stateMutability": "nonpayable",
      "type": "function"
    },
    {
      "constant": false,
      "inputs": [],
      "name": "unpause",
      "outputs": [],
      "payable": false,
      "stateMutability": "nonpayable",
      "type": "function"
    },
    {
      "constant": true,
      "inputs": [
        {
          "name": "account",
          "type": "address"
        }
      ],
      "name": "isPauser",
      "outputs": [
        {
          "name": "",
          "type": "bool"
        }
      ],
      "payable": false,
      "stateMutability": "view",
      "type": "function"
    },
    {
      "constant": true,
      "inputs": [],
      "name": "paused",
      "outputs": [
        {
          "name": "",
          "type": "bool"
        }
      ],
      "payable": false,
      "stateMutability": "view",
      "type": "function"
    },
    {
      "constant": true,
      "inputs": [],
      "name": "getAssetAddress",
      "outputs": [
        {
          "name": "",
          "type": "address"
        }
      ],
      "payable": false,
      "stateMutability": "view",
      "type": "function"
    },
    {
      "constant": false,
      "inputs": [],
      "name": "renouncePauser",
      "outputs": [],
      "payable": false,
      "stateMutability": "nonpayable",
      "type": "function"
    },
    {
      "constant": true,
      "inputs": [
        {
          "name": "owner",
          "type": "address"
        }
      ],
      "name": "balanceOf",
      "outputs": [
        {
          "name": "",
          "type": "uint256"
        }
      ],
      "payable": false,
      "stateMutability": "view",
      "type": "function"
    },
    {
      "constant": false,
      "inputs": [],
      "name": "renounceOwnership",
      "outputs": [],
      "payable": false,
      "stateMutability": "nonpayable",
      "type": "function"
    },
    {
      "constant": false,
      "inputs": [
        {
          "name": "account",
          "type": "address"
        }
      ],
      "name": "addPauser",
      "outputs": [],
      "payable": false,
      "stateMutability": "nonpayable",
      "type": "function"
    },
    {
      "constant": false,
      "inputs": [],
      "name": "pause",
      "outputs": [],
      "payable": false,
      "stateMutability": "nonpayable",
      "type": "function"
    },
    {
      "constant": true,
      "inputs": [],
      "name": "owner",
      "outputs": [
        {
          "name": "",
          "type": "address"
        }
      ],
      "payable": false,
      "stateMutability": "view",
      "type": "function"
    },
    {
      "constant": true,
      "inputs": [],
      "name": "isOwner",
      "outputs": [
        {
          "name": "",
          "type": "bool"
        }
      ],
      "payable": false,
      "stateMutability": "view",
      "type": "function"
    },
    {
      "constant": true,
      "inputs": [],
      "name": "symbol",
      "outputs": [
        {
          "name": "",
          "type": "string"
        }
      ],
      "payable": false,
      "stateMutability": "view",
      "type": "function"
    },
    {
      "constant": false,
      "inputs": [
        {
          "name": "account",
          "type": "address"
        }
      ],
      "name": "addMinter",
      "outputs": [],
      "payable": false,
      "stateMutability": "nonpayable",
      "type": "function"
    },
    {
      "constant": false,
      "inputs": [],
      "name": "renounceMinter",
      "outputs": [],
      "payable": false,
      "stateMutability": "nonpayable",
      "type": "function"
    },
    {
      "constant": false,
      "inputs": [
        {
          "name": "spender",
          "type": "address"
        },
        {
          "name": "subtractedValue",
          "type": "uint256"
        }
      ],
      "name": "decreaseAllowance",
      "outputs": [
        {
          "name": "success",
          "type": "bool"
        }
      ],
      "payable": false,
      "stateMutability": "nonpayable",
      "type": "function"
    },
    {
      "constant": true,
      "inputs": [],
      "name": "RESTRICTED_AREA",
      "outputs": [
        {
          "name": "",
          "type": "string"
        }
      ],
      "payable": false,
      "stateMutability": "view",
      "type": "function"
    },
    {
      "constant": false,
      "inputs": [
        {
          "name": "to",
          "type": "address"
        },
        {
          "name": "value",
          "type": "uint256"
        }
      ],
      "name": "transfer",
      "outputs": [
        {
          "name": "",
          "type": "bool"
        }
      ],
      "payable": false,
      "stateMutability": "nonpayable",
      "type": "function"
    },
    {
      "constant": true,
      "inputs": [
        {
          "name": "account",
          "type": "address"
        }
      ],
      "name": "isMinter",
      "outputs": [
        {
          "name": "",
          "type": "bool"
        }
      ],
      "payable": false,
      "stateMutability": "view",
      "type": "function"
    },
    {
      "constant": false,
      "inputs": [
        {
          "name": "to",
          "type": "address"
        },
        {
          "name": "value",
          "type": "uint256"
        },
        {
          "name": "_sender",
          "type": "address"
        }
      ],
      "name": "burn",
      "outputs": [
        {
          "name": "",
          "type": "bool"
        }
      ],
      "payable": false,
      "stateMutability": "nonpayable",
      "type": "function"
    },
    {
      "constant": true,
      "inputs": [],
      "name": "ONLY_OWNER",
      "outputs": [
        {
          "name": "",
          "type": "string"
        }
      ],
      "payable": false,
      "stateMutability": "view",
      "type": "function"
    },
    {
      "constant": true,
      "inputs": [
        {
          "name": "owner",
          "type": "address"
        },
        {
          "name": "spender",
          "type": "address"
        }
      ],
      "name": "allowance",
      "outputs": [
        {
          "name": "",
          "type": "uint256"
        }
      ],
      "payable": false,
      "stateMutability": "view",
      "type": "function"
    },
    {
      "constant": false,
      "inputs": [
        {
          "name": "newOwner",
          "type": "address"
        }
      ],
      "name": "transferOwnership",
      "outputs": [],
      "payable": false,
      "stateMutability": "nonpayable",
      "type": "function"
    },
    {
      "anonymous": false,
      "inputs": [
        {
          "indexed": true,
          "name": "previousOwner",
          "type": "address"
        },
        {
          "indexed": true,
          "name": "newOwner",
          "type": "address"
        }
      ],
      "name": "OwnershipTransferred",
      "type": "event"
    },
    {
      "anonymous": false,
      "inputs": [
        {
          "indexed": false,
          "name": "account",
          "type": "address"
        }
      ],
      "name": "Paused",
      "type": "event"
    },
    {
      "anonymous": false,
      "inputs": [
        {
          "indexed": false,
          "name": "account",
          "type": "address"
        }
      ],
      "name": "Unpaused",
      "type": "event"
    },
    {
      "anonymous": false,
      "inputs": [
        {
          "indexed": true,
          "name": "account",
          "type": "address"
        }
      ],
      "name": "PauserAdded",
      "type": "event"
    },
    {
      "anonymous": false,
      "inputs": [
        {
          "indexed": true,
          "name": "account",
          "type": "address"
        }
      ],
      "name": "PauserRemoved",
      "type": "event"
    },
    {
      "anonymous": false,
      "inputs": [
        {
          "indexed": true,
          "name": "account",
          "type": "address"
        }
      ],
      "name": "MinterAdded",
      "type": "event"
    },
    {
      "anonymous": false,
      "inputs": [
        {
          "indexed": true,
          "name": "account",
          "type": "address"
        }
      ],
      "name": "MinterRemoved",
      "type": "event"
    },
    {
      "anonymous": false,
      "inputs": [
        {
          "indexed": true,
          "name": "from",
          "type": "address"
        },
        {
          "indexed": true,
          "name": "to",
          "type": "address"
        },
        {
          "indexed": false,
          "name": "value",
          "type": "uint256"
        }
      ],
      "name": "MaharlikaTransfer",
      "type": "event"
    },
    {
      "anonymous": false,
      "inputs": [
        {
          "indexed": true,
          "name": "from",
          "type": "address"
        },
        {
          "indexed": true,
          "name": "to",
          "type": "address"
        },
        {
          "indexed": false,
          "name": "value",
          "type": "uint256"
        }
      ],
      "name": "Transfer",
      "type": "event"
    },
    {
      "anonymous": false,
      "inputs": [
        {
          "indexed": true,
          "name": "owner",
          "type": "address"
        },
        {
          "indexed": true,
          "name": "spender",
          "type": "address"
        },
        {
          "indexed": false,
          "name": "value",
          "type": "uint256"
        }
      ],
      "name": "Approval",
      "type": "event"
    },
    {
      "constant": false,
      "inputs": [
        {
          "name": "name",
          "type": "string"
        },
        {
          "name": "symbol",
          "type": "string"
        },
        {
          "name": "decimals",
          "type": "uint8"
        }
      ],
      "name": "initialize",
      "outputs": [],
      "payable": false,
      "stateMutability": "nonpayable",
      "type": "function"
    },
    {
      "constant": false,
      "inputs": [
        {
          "name": "name",
          "type": "string"
        },
        {
          "name": "symbol",
          "type": "string"
        },
        {
          "name": "decimals",
          "type": "uint8"
        },
        {
          "name": "initialSupply",
          "type": "uint256"
        },
        {
          "name": "initialHolder",
          "type": "address"
        },
        {
          "name": "minters",
          "type": "address[]"
        },
        {
          "name": "pausers",
          "type": "address[]"
        }
      ],
      "name": "initialize",
      "outputs": [],
      "payable": false,
      "stateMutability": "nonpayable",
      "type": "function"
    },
    {
      "constant": false,
      "inputs": [
        {
          "name": "sender",
          "type": "address"
        }
      ],
      "name": "initialize",
      "outputs": [],
      "payable": false,
      "stateMutability": "nonpayable",
      "type": "function"
    },
    {
      "constant": false,
      "inputs": [
        {
          "name": "_address",
          "type": "address"
        }
      ],
      "name": "removeMinter",
      "outputs": [],
      "payable": false,
      "stateMutability": "nonpayable",
      "type": "function"
    },
    {
      "constant": false,
      "inputs": [
        {
          "name": "_address",
          "type": "address"
        }
      ],
      "name": "removePauser",
      "outputs": [],
      "payable": false,
      "stateMutability": "nonpayable",
      "type": "function"
    },
    {
      "constant": false,
      "inputs": [
        {
          "name": "_erc721Address",
          "type": "address"
        }
      ],
      "name": "setAssetAddress",
      "outputs": [],
      "payable": false,
      "stateMutability": "nonpayable",
      "type": "function"
    },
    {
      "constant": false,
      "inputs": [
        {
          "name": "name",
          "type": "string"
        }
      ],
      "name": "setName",
      "outputs": [],
      "payable": false,
      "stateMutability": "nonpayable",
      "type": "function"
    },
    {
      "constant": false,
      "inputs": [
        {
          "name": "name",
          "type": "string"
        }
      ],
      "name": "setSymbol",
      "outputs": [],
      "payable": false,
      "stateMutability": "nonpayable",
      "type": "function"
    },
    {
      "constant": false,
      "inputs": [
        {
          "name": "_value",
          "type": "uint256"
        },
        {
          "name": "_sender",
          "type": "address"
        }
      ],
      "name": "increaseTotalSupply",
      "outputs": [
        {
          "name": "",
          "type": "bool"
        }
      ],
      "payable": false,
      "stateMutability": "nonpayable",
      "type": "function"
    },
    {
      "constant": false,
      "inputs": [
        {
          "name": "_value",
          "type": "uint256"
        },
        {
          "name": "_sender",
          "type": "address"
        }
      ],
      "name": "decreaseTotalSupply",
      "outputs": [
        {
          "name": "",
          "type": "bool"
        }
      ],
      "payable": false,
      "stateMutability": "nonpayable",
      "type": "function"
    }
  ],
  "bytecode": "0x60806040526123e2806100136000396000f3fe608060405234801561001057600080fd5b506004361061023d5760003560e01c8063770e09fd1161013b578063a9059cbb116100b8578063c4d66de81161007c578063c4d66de814610af0578063d238ed5914610b16578063dd62ed3e14610b1e578063de637ff714610b4c578063f2fde38b14610b785761023d565b8063a9059cbb14610920578063aa271e1a1461094c578063b84c824614610972578063b8ce670d14610a16578063c47f002714610a4c5761023d565b806395d89b41116100ff57806395d89b41146108b6578063983b2d56146108be57806398650275146108e4578063a457c2d7146108ec578063a7e2dd72146109185761023d565b8063770e09fd1461085257806382dc1ec4146108785780638456cb591461089e5780638da5cb5b146108a65780638f32d59b146108ae5761023d565b806339509351116101c9578063670ab5e91161018d578063670ab5e9146107d25780636b2c0f55146107f65780636ef8d66d1461081c57806370a0823114610824578063715018a61461084a5761023d565b806339509351146105255780633f4ba83a1461055157806346fbf68e1461055957806348be01c61461057f5780635c975abb146107ca5761023d565b806318160ddd1161021057806318160ddd1461046557806323b872dd1461047f5780633092afd5146104b5578063313ce567146104db57806335180eae146104f95761023d565b806306fdde0314610242578063095ea7b3146102bf5780630d4d1513146102ff5780631624f6c614610335575b600080fd5b61024a610b9e565b6040805160208082528351818301528351919283929083019185019080838360005b8381101561028457818101518382015260200161026c565b50505050905090810190601f1680156102b15780820380516001836020036101000a031916815260200191505b509250505060405180910390f35b6102eb600480360360408110156102d557600080fd5b506001600160a01b038135169060200135610c35565b604080519115158252519081900360200190f35b6102eb6004803603606081101561031557600080fd5b506001600160a01b03813581169160208101359160409091013516610c5a565b6104636004803603606081101561034b57600080fd5b810190602081018135600160201b81111561036557600080fd5b82018360208201111561037757600080fd5b803590602001918460018302840111600160201b8311171561039857600080fd5b91908080601f0160208091040260200160405190810160405280939291908181526020018383808284376000920191909152509295949360208101935035915050600160201b8111156103ea57600080fd5b8201836020820111156103fc57600080fd5b803590602001918460018302840111600160201b8311171561041d57600080fd5b91908080601f0160208091040260200160405190810160405280939291908181526020018383808284376000920191909152509295505050903560ff169150610cb79050565b005b61046d610d96565b60408051918252519081900360200190f35b6102eb6004803603606081101561049557600080fd5b506001600160a01b03813581169160208101359091169060400135610d9c565b610463600480360360208110156104cb57600080fd5b50356001600160a01b0316610dc3565b6104e3610de0565b6040805160ff9092168252519081900360200190f35b6102eb6004803603604081101561050f57600080fd5b50803590602001356001600160a01b0316610de9565b6102eb6004803603604081101561053b57600080fd5b506001600160a01b038135169060200135610f8d565b610463610fab565b6102eb6004803603602081101561056f57600080fd5b50356001600160a01b031661105a565b610463600480360360e081101561059557600080fd5b810190602081018135600160201b8111156105af57600080fd5b8201836020820111156105c157600080fd5b803590602001918460018302840111600160201b831117156105e257600080fd5b91908080601f0160208091040260200160405190810160405280939291908181526020018383808284376000920191909152509295949360208101935035915050600160201b81111561063457600080fd5b82018360208201111561064657600080fd5b803590602001918460018302840111600160201b8311171561066757600080fd5b91908080601f016020809104026020016040519081016040528093929190818152602001838380828437600092019190915250929560ff853516956020860135956001600160a01b0360408201351695509193509150608081019060600135600160201b8111156106d757600080fd5b8201836020820111156106e957600080fd5b803590602001918460208302840111600160201b8311171561070a57600080fd5b9190808060200260200160405190810160405280939291908181526020018383602002808284376000920191909152509295949360208101935035915050600160201b81111561075957600080fd5b82018360208201111561076b57600080fd5b803590602001918460208302840111600160201b8311171561078c57600080fd5b919080806020026020016040519081016040528093929190818152602001838360200280828437600092019190915250929550611074945050505050565b6102eb6111ce565b6107da6111d8565b604080516001600160a01b039092168252519081900360200190f35b6104636004803603602081101561080c57600080fd5b50356001600160a01b03166111e8565b610463611202565b61046d6004803603602081101561083a57600080fd5b50356001600160a01b0316611214565b61046361122f565b6104636004803603602081101561086857600080fd5b50356001600160a01b031661128c565b6104636004803603602081101561088e57600080fd5b50356001600160a01b03166112a6565b6104636112f8565b6107da611389565b6102eb611399565b61024a6113c0565b610463600480360360208110156108d457600080fd5b50356001600160a01b0316611421565b610463611478565b6102eb6004803603604081101561090257600080fd5b506001600160a01b038135169060200135611488565b61024a6114a6565b6102eb6004803603604081101561093657600080fd5b506001600160a01b0381351690602001356114df565b6102eb6004803603602081101561096257600080fd5b50356001600160a01b03166114fd565b6104636004803603602081101561098857600080fd5b810190602081018135600160201b8111156109a257600080fd5b8201836020820111156109b457600080fd5b803590602001918460018302840111600160201b831117156109d557600080fd5b91908080601f016020809104026020016040519081016040528093929190818152602001838380828437600092019190915250929550611510945050505050565b6102eb60048036036060811015610a2c57600080fd5b506001600160a01b0381358116916020810135916040909101351661152a565b61046360048036036020811015610a6257600080fd5b810190602081018135600160201b811115610a7c57600080fd5b820183602082011115610a8e57600080fd5b803590602001918460018302840111600160201b83111715610aaf57600080fd5b91908080601f01602080910402602001604051908101604052809392919081815260200183838082843760009201919091525092955061157d945050505050565b61046360048036036020811015610b0657600080fd5b50356001600160a01b0316611597565b61024a61168d565b61046d60048036036040811015610b3457600080fd5b506001600160a01b03813581169160200135166116c1565b6102eb60048036036040811015610b6257600080fd5b50803590602001356001600160a01b03166116ec565b61046360048036036020811015610b8e57600080fd5b50356001600160a01b031661188f565b60338054604080516020601f6002600019610100600188161502019095169490940493840181900481028201810190925282815260609390929091830182828015610c2a5780601f10610bff57610100808354040283529160200191610c2a565b820191906000526020600020905b815481529060010190602001808311610c0d57829003601f168201915b505050505090505b90565b6101355460009060ff1615610c4957600080fd5b610c5383836118a9565b9392505050565b6000610c65826114fd565b610ca357604051600160e51b62461bcd0281526004018080602001828103825260308152602001806123296030913960400191505060405180910390fd5b610cad84846118c6565b5060019392505050565b600054610100900460ff1680610cd05750610cd0611970565b80610cde575060005460ff16155b610d1c57604051600160e51b62461bcd02815260040180806020018281038252602e815260200180612359602e913960400191505060405180910390fd5b600054610100900460ff16158015610d47576000805460ff1961ff0019909116610100171660011790555b8351610d5a906033906020870190612260565b508251610d6e906034906020860190612260565b506035805460ff191660ff84161790558015610d90576000805461ff00191690555b50505050565b606a5490565b6101355460009060ff1615610db057600080fd5b610dbb848484611976565b949350505050565b610dcb611399565b610dd457600080fd5b610ddd816119e1565b50565b60355460ff1690565b6000610df3611389565b6001600160a01b0316826001600160a01b0316146040518060400160405280601581526020016001605a1b7413db9b1e481bdddb995c881a5cc8185b1b1bddd9590281525090610ec457604051600160e51b62461bcd0281526004018080602001828103825283818151815260200191508051906020019080838360005b83811015610e89578181015183820152602001610e71565b50505050905090810190601f168015610eb65780820380516001836020036101000a031916815260200191505b509250505060405180910390fd5b50610ecd6111d8565b6001600160a01b0316336001600160a01b0316146040518060400160405280601c81526020017f596f752061726520696e2061207265737472696374656420617265610000000081525090610f6657604051600160e51b62461bcd028152602060048201818152835160248401528351909283926044909101919085019080838360008315610e89578181015183820152602001610e71565b506000610f71610de0565b60ff16600a0a84029050610dbb610f86611389565b8285610c5a565b6101355460009060ff1615610fa157600080fd5b610c538383611a29565b610fbb610fb6611a7d565b61105a565b610ff957604051600160e51b62461bcd0281526004018080602001828103825260308152602001806122f96030913960400191505060405180910390fd5b6101355460ff1661100957600080fd5b610135805460ff191690557f5db9ee0a495bf2e6ff9c91a7834c1ba4fdd244a5e8aa4e537bd38aeae4b073aa61103d611a7d565b604080516001600160a01b039092168252519081900360200190a1565b600061106e6101028363ffffffff611a8116565b92915050565b600054610100900460ff168061108d575061108d611970565b8061109b575060005460ff16155b6110d957604051600160e51b62461bcd02815260040180806020018281038252602e815260200180612359602e913960400191505060405180910390fd5b600054610100900460ff16158015611104576000805460ff1961ff0019909116610100171660011790555b61110d84611597565b611118888888610cb7565b60ff8616600a0a850261112b85826118c6565b61113430611ab6565b61113d306119e1565b61114630611b64565b61114f30611bfd565b60005b845181101561117f5761117785828151811061116a57fe5b6020026020010151611c46565b600101611152565b5060005b83518110156111b0576111a884828151811061119b57fe5b6020026020010151611c8e565b600101611183565b505080156111c4576000805461ff00191690555b5050505050505050565b6101355460ff1690565b6101cd546001600160a01b031690565b6111f0611399565b6111f957600080fd5b610ddd81611bfd565b61121261120d611a7d565b611bfd565b565b6001600160a01b031660009081526068602052604090205490565b611237611399565b61124057600080fd5b61019a546040516000916001600160a01b0316907f8be0079c531659141344cd1fd0a4f28419497f9722a3daafe3b4186f6b6457e0908390a361019a80546001600160a01b0319169055565b611294611399565b61129d57600080fd5b610ddd81611cd7565b6112b1610fb6611a7d565b6112ef57604051600160e51b62461bcd0281526004018080602001828103825260308152602001806122f96030913960400191505060405180910390fd5b610ddd81611c8e565b611303610fb6611a7d565b61134157604051600160e51b62461bcd0281526004018080602001828103825260308152602001806122f96030913960400191505060405180910390fd5b6101355460ff161561135257600080fd5b610135805460ff191660011790557f62e78cea01bee320cd4e420270b5ea74000d11b0c9f74754ebdbfc544b05a25861103d611a7d565b61019a546001600160a01b031690565b61019a546000906001600160a01b03166113b1611a7d565b6001600160a01b031614905090565b60348054604080516020601f6002600019610100600188161502019095169490940493840181900481028201810190925282815260609390929091830182828015610c2a5780601f10610bff57610100808354040283529160200191610c2a565b61143161142c611a7d565b6114fd565b61146f57604051600160e51b62461bcd0281526004018080602001828103825260308152602001806123296030913960400191505060405180910390fd5b610ddd81611c46565b611212611483611a7d565b6119e1565b6101355460009060ff161561149c57600080fd5b610c538383611cfa565b6040518060400160405280601c81526020017f596f752061726520696e2061207265737472696374656420617265610000000081525081565b6101355460009060ff16156114f357600080fd5b610c538383611d4e565b600061106e609d8363ffffffff611a8116565b611518611399565b61152157600080fd5b610ddd81611d62565b6000611535826114fd565b61157357604051600160e51b62461bcd0281526004018080602001828103825260308152602001806123296030913960400191505060405180910390fd5b610cad8484611d75565b611585611399565b61158e57600080fd5b610ddd81611dc7565b600054610100900460ff16806115b057506115b0611970565b806115be575060005460ff16155b6115fc57604051600160e51b62461bcd02815260040180806020018281038252602e815260200180612359602e913960400191505060405180910390fd5b600054610100900460ff16158015611627576000805460ff1961ff0019909116610100171660011790555b61019a80546001600160a01b0319166001600160a01b0384811691909117918290556040519116906000907f8be0079c531659141344cd1fd0a4f28419497f9722a3daafe3b4186f6b6457e0908290a38015611689576000805461ff00191690555b5050565b6040518060400160405280601581526020016001605a1b7413db9b1e481bdddb995c881a5cc8185b1b1bddd9590281525081565b6001600160a01b03918216600090815260696020908152604080832093909416825291909152205490565b60006116f6611389565b6001600160a01b0316826001600160a01b0316146040518060400160405280601581526020016001605a1b7413db9b1e481bdddb995c881a5cc8185b1b1bddd959028152509061178a57604051600160e51b62461bcd028152602060048201818152835160248401528351909283926044909101919085019080838360008315610e89578181015183820152602001610e71565b506117936111d8565b6001600160a01b0316336001600160a01b0316146040518060400160405280601c81526020017f596f752061726520696e206120726573747269637465642061726561000000008152509061182c57604051600160e51b62461bcd028152602060048201818152835160248401528351909283926044909101919085019080838360008315610e89578181015183820152602001610e71565b5061183d611838611389565b611214565b831061187d57604051600160e51b62461bcd0281526004018080602001828103825260308152602001806123876030913960400191505060405180910390fd5b610c53611888611389565b848461152a565b611897611399565b6118a057600080fd5b610ddd81611dda565b60006118bd6118b6611a7d565b8484611e4b565b50600192915050565b6001600160a01b0382166118d957600080fd5b606a546118ec908263ffffffff611ed316565b606a556001600160a01b038216600090815260686020526040902054611918908263ffffffff611ed316565b6001600160a01b03831660008181526068602090815260408083209490945583518581529351929391927f5246fc4d0a8a45bac23d8b9d79800b4684b495b1747a8436a687a21a68430f089281900390910190a35050565b303b1590565b6000611983848484611ee5565b610cad8461198f611a7d565b6001600160a01b03871660009081526069602052604081206119dc918791906119b6611a7d565b6001600160a01b031681526020810191909152604001600020549063ffffffff611fb216565b611e4b565b6119f2609d8263ffffffff611fc716565b6040516001600160a01b038216907fe94479a9f7e1952cc78f2d6baab678adc1b772d936c6583def489e524cb6669290600090a250565b60006118bd611a36611a7d565b846119dc8560696000611a47611a7d565b6001600160a01b03908116825260208083019390935260409182016000908120918c16815292529020549063ffffffff611ed316565b3390565b60006001600160a01b038216611a9657600080fd5b506001600160a01b03166000908152602091909152604090205460ff1690565b600054610100900460ff1680611acf5750611acf611970565b80611add575060005460ff16155b611b1b57604051600160e51b62461bcd02815260040180806020018281038252602e815260200180612359602e913960400191505060405180910390fd5b600054610100900460ff16158015611b46576000805460ff1961ff0019909116610100171660011790555b611b4f8261200f565b8015611689576000805461ff00191690555050565b600054610100900460ff1680611b7d5750611b7d611970565b80611b8b575060005460ff16155b611bc957604051600160e51b62461bcd02815260040180806020018281038252602e815260200180612359602e913960400191505060405180910390fd5b600054610100900460ff16158015611bf4576000805460ff1961ff0019909116610100171660011790555b611b4f826120b5565b611c0f6101028263ffffffff611fc716565b6040516001600160a01b038216907fcd265ebaf09df2871cc7bd4133404a235ba12eff2041bb89d9c714a2621c7c7e90600090a250565b611c57609d8263ffffffff61216e16565b6040516001600160a01b038216907f6ae172837ea30b801fbfcdd4108aa1d5bf8ff775444fd70256b44e6bf3dfc3f690600090a250565b611ca06101028263ffffffff61216e16565b6040516001600160a01b038216907f6719d08c1888103bea251a4ed56406bd0c3e69723c8a1686e017e7bbe159b6f890600090a250565b6101cd80546001600160a01b0319166001600160a01b0392909216919091179055565b60006118bd611d07611a7d565b846119dc8560696000611d18611a7d565b6001600160a01b03908116825260208083019390935260409182016000908120918c16815292529020549063ffffffff611fb216565b60006118bd611d5b611a7d565b8484611ee5565b8051611689906034906020840190612260565b6001600160a01b038216611d8857600080fd5b606a54611d9b908263ffffffff611fb216565b606a556001600160a01b038216600090815260686020526040902054611918908263ffffffff611fb216565b8051611689906033906020840190612260565b6001600160a01b038116611ded57600080fd5b61019a546040516001600160a01b038084169216907f8be0079c531659141344cd1fd0a4f28419497f9722a3daafe3b4186f6b6457e090600090a361019a80546001600160a01b0319166001600160a01b0392909216919091179055565b6001600160a01b038216611e5e57600080fd5b6001600160a01b038316611e7157600080fd5b6001600160a01b03808416600081815260696020908152604080832094871680845294825291829020859055815185815291517f8c5be1e5ebec7d5bd14f71427d1e84f3dd0314c0f7b2291e5b200ac8c7c3b9259281900390910190a3505050565b600082820183811015610c5357600080fd5b6001600160a01b038216611ef857600080fd5b6001600160a01b038316600090815260686020526040902054611f21908263ffffffff611fb216565b6001600160a01b038085166000908152606860205260408082209390935590841681522054611f56908263ffffffff611ed316565b6001600160a01b0380841660008181526068602090815260409182902094909455805185815290519193928716927fddf252ad1be2c89b69c2b068fc378daa952ba7f163c4a11628f55a4df523b3ef92918290030190a3505050565b600082821115611fc157600080fd5b50900390565b6001600160a01b038116611fda57600080fd5b611fe48282611a81565b611fed57600080fd5b6001600160a01b0316600090815260209190915260409020805460ff19169055565b600054610100900460ff16806120285750612028611970565b80612036575060005460ff16155b61207457604051600160e51b62461bcd02815260040180806020018281038252602e815260200180612359602e913960400191505060405180910390fd5b600054610100900460ff1615801561209f576000805460ff1961ff0019909116610100171660011790555b6120a8826114fd565b611b4f57611b4f82611c46565b600054610100900460ff16806120ce57506120ce611970565b806120dc575060005460ff16155b61211a57604051600160e51b62461bcd02815260040180806020018281038252602e815260200180612359602e913960400191505060405180910390fd5b600054610100900460ff16158015612145576000805460ff1961ff0019909116610100171660011790555b61214e826121ba565b610135805460ff191690558015611689576000805461ff00191690555050565b6001600160a01b03811661218157600080fd5b61218b8282611a81565b1561219557600080fd5b6001600160a01b0316600090815260209190915260409020805460ff19166001179055565b600054610100900460ff16806121d357506121d3611970565b806121e1575060005460ff16155b61221f57604051600160e51b62461bcd02815260040180806020018281038252602e815260200180612359602e913960400191505060405180910390fd5b600054610100900460ff1615801561224a576000805460ff1961ff0019909116610100171660011790555b6122538261105a565b611b4f57611b4f82611c8e565b828054600181600116156101000203166002900490600052602060002090601f016020900481019282601f106122a157805160ff19168380011785556122ce565b828001600101855582156122ce579182015b828111156122ce5782518255916020019190600101906122b3565b506122da9291506122de565b5090565b610c3291905b808211156122da57600081556001016122e456fe506175736572526f6c653a2063616c6c657220646f6573206e6f742068617665207468652050617573657220726f6c654d696e746572526f6c653a2063616c6c657220646f6573206e6f74206861766520746865204d696e74657220726f6c65436f6e747261637420696e7374616e63652068617320616c7265616479206265656e20696e697469616c697a6564417373657473206265696e672072656d6f766564206973206c6172676572207468616e2074686520737570706c696572a165627a7a723058206103b3fdf8d2209bb5237d5819d98262b41ea0269202eb5f6eaa67bb75de011a0029",
  "source": "\n// File: @openzeppelin\\upgrades\\contracts\\Initializable.sol\n\npragma solidity >=0.4.24 <0.6.0;\n\n\n/**\n * @title Initializable\n *\n * @dev Helper contract to support initializer functions. To use it, replace\n * the constructor with a function that has the `initializer` modifier.\n * WARNING: Unlike constructors, initializer functions must be manually\n * invoked. This applies both to deploying an Initializable contract, as well\n * as extending an Initializable contract via inheritance.\n * WARNING: When used with inheritance, manual care must be taken to not invoke\n * a parent initializer twice, or ensure that all initializers are idempotent,\n * because this is not dealt with automatically as with constructors.\n */\ncontract Initializable {\n\n  /**\n   * @dev Indicates that the contract has been initialized.\n   */\n  bool private initialized;\n\n  /**\n   * @dev Indicates that the contract is in the process of being initialized.\n   */\n  bool private initializing;\n\n  /**\n   * @dev Modifier to use in the initializer function of a contract.\n   */\n  modifier initializer() {\n    require(initializing || isConstructor() || !initialized, \"Contract instance has already been initialized\");\n\n    bool isTopLevelCall = !initializing;\n    if (isTopLevelCall) {\n      initializing = true;\n      initialized = true;\n    }\n\n    _;\n\n    if (isTopLevelCall) {\n      initializing = false;\n    }\n  }\n\n  /// @dev Returns true if and only if the function is running in the constructor\n  function isConstructor() private view returns (bool) {\n    // extcodesize checks the size of the code stored in an address, and\n    // address returns the current address. Since the code is still not\n    // deployed when running a constructor, any checks on its code size will\n    // yield zero, making it an effective way to detect if a contract is\n    // under construction or not.\n    uint256 cs;\n    assembly { cs := extcodesize(address) }\n    return cs == 0;\n  }\n\n  // Reserved storage space to allow for layout changes in the future.\n  uint256[50] private ______gap;\n}\n\n// File: node_modules\\@openzeppelin\\contracts-ethereum-package\\contracts\\token\\ERC20\\IERC20.sol\n\npragma solidity ^0.5.2;\n\n/**\n * @title ERC20 interface\n * @dev see https://eips.ethereum.org/EIPS/eip-20\n */\ninterface IERC20 {\n    function transfer(address to, uint256 value) external returns (bool);\n\n    function approve(address spender, uint256 value) external returns (bool);\n\n    function transferFrom(address from, address to, uint256 value) external returns (bool);\n\n    function totalSupply() external view returns (uint256);\n\n    function balanceOf(address who) external view returns (uint256);\n\n    function allowance(address owner, address spender) external view returns (uint256);\n\n    event Transfer(address indexed from, address indexed to, uint256 value);\n\n    event Approval(address indexed owner, address indexed spender, uint256 value);\n}\n\n// File: @openzeppelin\\contracts-ethereum-package\\contracts\\token\\ERC20\\ERC20Detailed.sol\n\npragma solidity ^0.5.2;\n\n\n\n/**\n * @title ERC20Detailed token\n * @dev The decimals are only for visualization purposes.\n * All the operations are done using the smallest and indivisible token unit,\n * just as on Ethereum all the operations are done in wei.\n */\ncontract ERC20Detailed is Initializable, IERC20 {\n    string private _name;\n    string private _symbol;\n    uint8 private _decimals;\n\n    function initialize(string memory name, string memory symbol, uint8 decimals) public initializer {\n        _name = name;\n        _symbol = symbol;\n        _decimals = decimals;\n    }\n\n    /**\n     * @return the name of the token.\n     */\n    function name() public view returns (string memory) {\n        return _name;\n    }\n\n    function _setName(string memory modifiedName) internal {\n        _name = modifiedName;\n    }\n    /**\n     * @return the symbol of the token.\n     */\n    function symbol() public view returns (string memory) {\n        return _symbol;\n    }\n\n    function _setSymbol(string memory modifiedSymbol) internal {\n        _symbol = modifiedSymbol;\n    }\n\n    /**\n     * @return the number of decimals of the token.\n     */\n    function decimals() public view returns (uint8) {\n        return _decimals;\n    }\n\n    uint256[50] private ______gap;\n}\n\n// File: node_modules\\@openzeppelin\\contracts-ethereum-package\\contracts\\GSN\\Context.sol\n\npragma solidity ^0.5.0;\n\n/*\n * @dev Provides information about the current execution context, including the\n * sender of the transaction and its data. While these are generally available\n * via msg.sender and msg.data, they not should not be accessed in such a direct\n * manner, since when dealing with GSN meta-transactions the account sending and\n * paying for execution may not be the actual sender (as far as an application\n * is concerned).\n *\n * This contract is only required for intermediate, library-like contracts.\n */\ncontract Context {\n    // Empty internal constructor, to prevent people from mistakenly deploying\n    // an instance of this contract, with should be used via inheritance.\n    constructor () internal { }\n    // solhint-disable-previous-line no-empty-blocks\n\n    function _msgSender() internal view returns (address) {\n        return msg.sender;\n    }\n\n    function _msgData() internal view returns (bytes memory) {\n        this; // silence state mutability warning without generating bytecode - see https://github.com/ethereum/solidity/issues/2691\n        return msg.data;\n    }\n}\n\n// File: node_modules\\@openzeppelin\\contracts-ethereum-package\\contracts\\math\\SafeMath.sol\n\npragma solidity ^0.5.2;\n\n/**\n * @title SafeMath\n * @dev Unsigned math operations with safety checks that revert on error\n */\nlibrary SafeMath {\n    /**\n     * @dev Multiplies two unsigned integers, reverts on overflow.\n     */\n    function mul(uint256 a, uint256 b) internal pure returns (uint256) {\n        // Gas optimization: this is cheaper than requiring 'a' not being zero, but the\n        // benefit is lost if 'b' is also tested.\n        // See: https://github.com/OpenZeppelin/openzeppelin-solidity/pull/522\n        if (a == 0) {\n            return 0;\n        }\n\n        uint256 c = a * b;\n        require(c / a == b);\n\n        return c;\n    }\n\n    /**\n     * @dev Integer division of two unsigned integers truncating the quotient, reverts on division by zero.\n     */\n    function div(uint256 a, uint256 b) internal pure returns (uint256) {\n        // Solidity only automatically asserts when dividing by 0\n        require(b > 0);\n        uint256 c = a / b;\n        // assert(a == b * c + a % b); // There is no case in which this doesn't hold\n\n        return c;\n    }\n\n    /**\n     * @dev Subtracts two unsigned integers, reverts on overflow (i.e. if subtrahend is greater than minuend).\n     */\n    function sub(uint256 a, uint256 b) internal pure returns (uint256) {\n        require(b <= a);\n        uint256 c = a - b;\n\n        return c;\n    }\n\n    /**\n     * @dev Adds two unsigned integers, reverts on overflow.\n     */\n    function add(uint256 a, uint256 b) internal pure returns (uint256) {\n        uint256 c = a + b;\n        require(c >= a);\n\n        return c;\n    }\n\n    /**\n     * @dev Divides two unsigned integers and returns the remainder (unsigned integer modulo),\n     * reverts when dividing by zero.\n     */\n    function mod(uint256 a, uint256 b) internal pure returns (uint256) {\n        require(b != 0);\n        return a % b;\n    }\n}\n\n// File: @openzeppelin\\contracts-ethereum-package\\contracts\\token\\ERC20\\ERC20.sol\n\npragma solidity ^0.5.2;\n\n\n\n\n\n/**\n * @title Standard ERC20 token\n *\n * @dev Implementation of the basic standard token.\n * https://eips.ethereum.org/EIPS/eip-20\n * Originally based on code by FirstBlood:\n * https://github.com/Firstbloodio/token/blob/master/smart_contract/FirstBloodToken.sol\n *\n * This implementation emits additional Approval events, allowing applications to reconstruct the allowance status for\n * all accounts just by listening to said events. Note that this isn't required by the specification, and other\n * compliant implementations may not do it.\n */\ncontract ERC20 is Initializable, Context, IERC20 {\n    using SafeMath for uint256;\n\n    mapping (address => uint256) private _balances;\n\n    mapping (address => mapping (address => uint256)) private _allowances;\n\n    uint256 private _totalSupply;\n\n    event MaharlikaTransfer(address indexed from, address indexed to, uint256 value);\n    /**\n     * @dev Total number of tokens in existence\n     */\n    function totalSupply() public view returns (uint256) {\n        return _totalSupply;\n    }\n\n    /**\n     * @dev Gets the balance of the specified address.\n     * @param owner The address to query the balance of.\n     * @return A uint256 representing the amount owned by the passed address.\n     */\n    function balanceOf(address owner) public view returns (uint256) {\n        return _balances[owner];\n    }\n\n    /**\n     * @dev Function to check the amount of tokens that an owner allowed to a spender.\n     * @param owner address The address which owns the funds.\n     * @param spender address The address which will spend the funds.\n     * @return A uint256 specifying the amount of tokens still available for the spender.\n     */\n    function allowance(address owner, address spender) public view returns (uint256) {\n        return _allowances[owner][spender];\n    }\n\n    /**\n     * @dev Transfer token to a specified address\n     * @param to The address to transfer to.\n     * @param value The amount to be transferred.\n     */\n    function transfer(address to, uint256 value) public returns (bool) {\n        _transfer(_msgSender(), to, value);\n        return true;\n    }\n\n    /**\n     * @dev Approve the passed address to spend the specified amount of tokens on behalf of msg.sender.\n     * Beware that changing an allowance with this method brings the risk that someone may use both the old\n     * and the new allowance by unfortunate transaction ordering. One possible solution to mitigate this\n     * race condition is to first reduce the spender's allowance to 0 and set the desired value afterwards:\n     * https://github.com/ethereum/EIPs/issues/20#issuecomment-263524729\n     * @param spender The address which will spend the funds.\n     * @param value The amount of tokens to be spent.\n     */\n    function approve(address spender, uint256 value) public returns (bool) {\n        _approve(_msgSender(), spender, value);\n        return true;\n    }\n\n    /**\n     * @dev Transfer tokens from one address to another.\n     * Note that while this function emits an Approval event, this is not required as per the specification,\n     * and other compliant implementations may not emit the event.\n     * @param from address The address which you want to send tokens from\n     * @param to address The address which you want to transfer to\n     * @param value uint256 the amount of tokens to be transferred\n     */\n    function transferFrom(address from, address to, uint256 value) public returns (bool) {\n        _transfer(from, to, value);\n        _approve(from, _msgSender(), _allowances[from][_msgSender()].sub(value));\n        return true;\n    }\n\n    /**\n     * @dev Increase the amount of tokens that an owner allowed to a spender.\n     * approve should be called when _allowances[msg.sender][spender] == 0. To increment\n     * allowed value is better to use this function to avoid 2 calls (and wait until\n     * the first transaction is mined)\n     * From MonolithDAO Token.sol\n     * Emits an Approval event.\n     * @param spender The address which will spend the funds.\n     * @param addedValue The amount of tokens to increase the allowance by.\n     */\n    function increaseAllowance(address spender, uint256 addedValue) public returns (bool) {\n        _approve(_msgSender(), spender, _allowances[_msgSender()][spender].add(addedValue));\n        return true;\n    }\n\n    /**\n     * @dev Decrease the amount of tokens that an owner allowed to a spender.\n     * approve should be called when _allowances[msg.sender][spender] == 0. To decrement\n     * allowed value is better to use this function to avoid 2 calls (and wait until\n     * the first transaction is mined)\n     * From MonolithDAO Token.sol\n     * Emits an Approval event.\n     * @param spender The address which will spend the funds.\n     * @param subtractedValue The amount of tokens to decrease the allowance by.\n     */\n    function decreaseAllowance(address spender, uint256 subtractedValue) public returns (bool) {\n        _approve(_msgSender(), spender, _allowances[_msgSender()][spender].sub(subtractedValue));\n        return true;\n    }\n\n    /**\n     * @dev Transfer token for a specified addresses\n     * @param from The address to transfer from.\n     * @param to The address to transfer to.\n     * @param value The amount to be transferred.\n     */\n    function _transfer(address from, address to, uint256 value) internal {\n        require(to != address(0));\n\n        _balances[from] = _balances[from].sub(value);\n        _balances[to] = _balances[to].add(value);\n        emit Transfer(from, to, value);\n    }\n\n    /**\n     * @dev Internal function that mints an amount of the token and assigns it to\n     * an account. This encapsulates the modification of balances such that the\n     * proper events are emitted.\n     * @param account The account that will receive the created tokens.\n     * @param value The amount that will be created.\n     */\n    function _mint(address account, uint256 value) internal {\n        require(account != address(0));\n\n        _totalSupply = _totalSupply.add(value);\n        _balances[account] = _balances[account].add(value);\n        emit MaharlikaTransfer(address(0), account, value);\n    }\n\n    /**\n     * @dev Internal function that burns an amount of the token of a given\n     * account.\n     * @param account The account whose tokens will be burnt.\n     * @param value The amount that will be burnt.\n     */\n    function _burn(address account, uint256 value) internal {\n        require(account != address(0));\n\n        _totalSupply = _totalSupply.sub(value);\n        _balances[account] = _balances[account].sub(value);\n        emit MaharlikaTransfer(address(0), account, value);\n    }\n\n    /**\n     * @dev Approve an address to spend another addresses' tokens.\n     * @param owner The address that owns the tokens.\n     * @param spender The address that will spend the tokens.\n     * @param value The number of tokens that can be spent.\n     */\n    function _approve(address owner, address spender, uint256 value) internal {\n        require(spender != address(0));\n        require(owner != address(0));\n\n        _allowances[owner][spender] = value;\n        emit Approval(owner, spender, value);\n    }\n\n    /**\n     * @dev Internal function that burns an amount of the token of a given\n     * account, deducting from the sender's allowance for said account. Uses the\n     * internal burn function.\n     * Emits an Approval event (reflecting the reduced allowance).\n     * @param account The account whose tokens will be burnt.\n     * @param amount The amount that will be burnt.\n     */\n    function _burnFrom(address account, uint256 amount) internal {\n        _burn(account, amount);\n        _approve(account, _msgSender(), _allowances[account][_msgSender()].sub(amount));\n    }\n\n    uint256[50] private ______gap;\n}\n\n// File: node_modules\\@openzeppelin\\contracts-ethereum-package\\contracts\\access\\Roles.sol\n\npragma solidity ^0.5.2;\n\n/**\n * @title Roles\n * @dev Library for managing addresses assigned to a Role.\n */\nlibrary Roles {\n    struct Role {\n        mapping (address => bool) bearer;\n    }\n\n    /**\n     * @dev give an account access to this role\n     */\n    function add(Role storage role, address account) internal {\n        require(account != address(0));\n        require(!has(role, account));\n\n        role.bearer[account] = true;\n    }\n\n    /**\n     * @dev remove an account's access to this role\n     */\n    function remove(Role storage role, address account) internal {\n        require(account != address(0));\n        require(has(role, account));\n\n        role.bearer[account] = false;\n    }\n\n    /**\n     * @dev check if an account has this role\n     * @return bool\n     */\n    function has(Role storage role, address account) internal view returns (bool) {\n        require(account != address(0));\n        return role.bearer[account];\n    }\n}\n\n// File: @openzeppelin\\contracts-ethereum-package\\contracts\\access\\roles\\MinterRole.sol\n\npragma solidity ^0.5.2;\n\n\n\n\ncontract MinterRole is Initializable, Context {\n    using Roles for Roles.Role;\n\n    event MinterAdded(address indexed account);\n    event MinterRemoved(address indexed account);\n\n    Roles.Role private _minters;\n\n    function initialize(address sender) public initializer {\n        if (!isMinter(sender)) {\n            _addMinter(sender);\n        }\n    }\n\n    modifier onlyMinter() {\n        require(isMinter(_msgSender()), \"MinterRole: caller does not have the Minter role\");\n        _;\n    }\n\n    function isMinter(address account) public view returns (bool) {\n        return _minters.has(account);\n    }\n\n    function addMinter(address account) public onlyMinter {\n        _addMinter(account);\n    }\n\n    function renounceMinter() public {\n        _removeMinter(_msgSender());\n    }\n\n    function _addMinter(address account) internal {\n        _minters.add(account);\n        emit MinterAdded(account);\n    }\n\n    function _removeMinter(address account) internal {\n        _minters.remove(account);\n        emit MinterRemoved(account);\n    }\n\n    uint256[50] private ______gap;\n}\n\n// File: original\\erc20\\MaharlikaERC20Mintable.sol\n\npragma solidity ^0.5.2;\n\n\n\n\n/**\n * @title ERC20Mintable\n * @dev ERC20 minting logic\n */\ncontract MaharlikaERC20Mintable is Initializable, ERC20, MinterRole {\n    function initialize(address sender) public initializer {\n        MinterRole.initialize(sender);\n    }\n\n    /**\n     * @dev Function to mint tokens\n     * @param to The address that will receive the minted tokens.\n     * @param value The amount of tokens to mint.\n     * @return A boolean that indicates if the operation was successful.\n     */\n    function mint(address to, uint256 value, address _sender) public returns (bool) {\n        require(isMinter(_sender), \"MinterRole: caller does not have the Minter role\");\n        _mint(to, value);\n        return true;\n    }\n\n    /**\n     * @dev Function to burn tokens\n     * @param to The address that will receive the minted tokens.\n     * @param value The amount of tokens to mint.\n     * @return A boolean that indicates if the operation was successful.\n     */\n    function burn(address to, uint256 value, address _sender) public returns (bool) {\n        require(isMinter(_sender), \"MinterRole: caller does not have the Minter role\");\n        _burn(to, value);\n        return true;\n    }\n\n    uint256[50] private ______gap;\n}\n\n// File: node_modules\\@openzeppelin\\contracts-ethereum-package\\contracts\\access\\roles\\PauserRole.sol\n\npragma solidity ^0.5.2;\n\n\n\n\ncontract PauserRole is Initializable, Context {\n    using Roles for Roles.Role;\n\n    event PauserAdded(address indexed account);\n    event PauserRemoved(address indexed account);\n\n    Roles.Role private _pausers;\n\n    function initialize(address sender) public initializer {\n        if (!isPauser(sender)) {\n            _addPauser(sender);\n        }\n    }\n\n    modifier onlyPauser() {\n        require(isPauser(_msgSender()), \"PauserRole: caller does not have the Pauser role\");\n        _;\n    }\n\n    function isPauser(address account) public view returns (bool) {\n        return _pausers.has(account);\n    }\n\n    function addPauser(address account) public onlyPauser {\n        _addPauser(account);\n    }\n\n    function renouncePauser() public {\n        _removePauser(_msgSender());\n    }\n\n    function _addPauser(address account) internal {\n        _pausers.add(account);\n        emit PauserAdded(account);\n    }\n\n    function _removePauser(address account) internal {\n        _pausers.remove(account);\n        emit PauserRemoved(account);\n    }\n\n    uint256[50] private ______gap;\n}\n\n// File: node_modules\\@openzeppelin\\contracts-ethereum-package\\contracts\\lifecycle\\Pausable.sol\n\npragma solidity ^0.5.2;\n\n\n\n\n/**\n * @title Pausable\n * @dev Base contract which allows children to implement an emergency stop mechanism.\n */\ncontract Pausable is Initializable, Context, PauserRole {\n    event Paused(address account);\n    event Unpaused(address account);\n\n    bool private _paused;\n\n    function initialize(address sender) public initializer {\n        PauserRole.initialize(sender);\n\n        _paused = false;\n    }\n\n    /**\n     * @return true if the contract is paused, false otherwise.\n     */\n    function paused() public view returns (bool) {\n        return _paused;\n    }\n\n    /**\n     * @dev Modifier to make a function callable only when the contract is not paused.\n     */\n    modifier whenNotPaused() {\n        require(!_paused);\n        _;\n    }\n\n    /**\n     * @dev Modifier to make a function callable only when the contract is paused.\n     */\n    modifier whenPaused() {\n        require(_paused);\n        _;\n    }\n\n    /**\n     * @dev called by the owner to pause, triggers stopped state\n     */\n    function pause() public onlyPauser whenNotPaused {\n        _paused = true;\n        emit Paused(_msgSender());\n    }\n\n    /**\n     * @dev called by the owner to unpause, returns to normal state\n     */\n    function unpause() public onlyPauser whenPaused {\n        _paused = false;\n        emit Unpaused(_msgSender());\n    }\n\n    uint256[50] private ______gap;\n}\n\n// File: @openzeppelin\\contracts-ethereum-package\\contracts\\token\\ERC20\\ERC20Pausable.sol\n\npragma solidity ^0.5.2;\n\n\n\n\n/**\n * @title Pausable token\n * @dev ERC20 modified with pausable transfers.\n */\ncontract ERC20Pausable is Initializable, ERC20, Pausable {\n    function initialize(address sender) public initializer {\n        Pausable.initialize(sender);\n    }\n\n    function transfer(address to, uint256 value) public whenNotPaused returns (bool) {\n        return super.transfer(to, value);\n    }\n\n    function transferFrom(address from, address to, uint256 value) public whenNotPaused returns (bool) {\n        return super.transferFrom(from, to, value);\n    }\n\n    function approve(address spender, uint256 value) public whenNotPaused returns (bool) {\n        return super.approve(spender, value);\n    }\n\n    function increaseAllowance(address spender, uint addedValue) public whenNotPaused returns (bool success) {\n        return super.increaseAllowance(spender, addedValue);\n    }\n\n    function decreaseAllowance(address spender, uint subtractedValue) public whenNotPaused returns (bool success) {\n        return super.decreaseAllowance(spender, subtractedValue);\n    }\n\n    uint256[50] private ______gap;\n}\n\n// File: @openzeppelin\\contracts-ethereum-package\\contracts\\ownership\\Ownable.sol\n\npragma solidity ^0.5.2;\n\n\n\n/**\n * @title Ownable\n * @dev The Ownable contract has an owner address, and provides basic authorization control\n * functions, this simplifies the implementation of \"user permissions\".\n */\ncontract Ownable is Initializable, Context {\n    address private _owner;\n\n    event OwnershipTransferred(address indexed previousOwner, address indexed newOwner);\n\n    /**\n     * @dev The Ownable constructor sets the original `owner` of the contract to the sender\n     * account.\n     */\n    function initialize(address sender) public initializer {\n        _owner = sender;\n        emit OwnershipTransferred(address(0), _owner);\n    }\n\n    /**\n     * @return the address of the owner.\n     */\n    function owner() public view returns (address) {\n        return _owner;\n    }\n\n    /**\n     * @dev Throws if called by any account other than the owner.\n     */\n    modifier onlyOwner() {\n        require(isOwner());\n        _;\n    }\n\n    /**\n     * @return true if `msg.sender` is the owner of the contract.\n     */\n    function isOwner() public view returns (bool) {\n        return _msgSender() == _owner;\n    }\n\n    /**\n     * @dev Allows the current owner to relinquish control of the contract.\n     * It will not be possible to call the functions with the `onlyOwner`\n     * modifier anymore.\n     * @notice Renouncing ownership will leave the contract without an owner,\n     * thereby removing any functionality that is only available to the owner.\n     */\n    function renounceOwnership() public onlyOwner {\n        emit OwnershipTransferred(_owner, address(0));\n        _owner = address(0);\n    }\n\n    /**\n     * @dev Allows the current owner to transfer control of the contract to a newOwner.\n     * @param newOwner The address to transfer ownership to.\n     */\n    function transferOwnership(address newOwner) public onlyOwner {\n        _transferOwnership(newOwner);\n    }\n\n    /**\n     * @dev Transfers control of the contract to a newOwner.\n     * @param newOwner The address to transfer ownership to.\n     */\n    function _transferOwnership(address newOwner) internal {\n        require(newOwner != address(0));\n        emit OwnershipTransferred(_owner, newOwner);\n        _owner = newOwner;\n    }\n\n    uint256[50] private ______gap;\n}\n\n// File: original\\registries\\MaharlikaAssetRegistry.sol\n\npragma solidity ^0.5.6;\n\n/**\n * @title Maharlika Asset Registry\n * @dev Used by Maharlika Coin to know which Asset Address will be allowed\n */\ncontract MaharlikaAssetRegistry {\n\n    address assetAddress;\n\n    function _setAssetAddress(address _address) internal {\n        assetAddress = _address;\n    }\n\n    function getAssetAddress() public view returns(address) {\n        return assetAddress;\n    }\n}\n\n// File: original\\MaharlikaCoin.sol\n\npragma solidity ^0.5.6;\n\n\n\n\n\n\n\ncontract MaharlikaCoin is Initializable, ERC20Detailed, MaharlikaERC20Mintable, ERC20Pausable, Ownable, MaharlikaAssetRegistry {\n    string public constant ONLY_OWNER = \"Only owner is allowed\";\n    string public constant RESTRICTED_AREA = \"You are in a restricted area\";\n\n    function initialize(\n        string memory name, string memory symbol, uint8 decimals, uint256 initialSupply, address initialHolder,\n        address[] memory minters, address[] memory pausers\n    ) public initializer\n    {\n        Ownable.initialize(initialHolder);\n        ERC20Detailed.initialize(name, symbol, decimals);\n\n        // Mint the initial supply\n        uint256 computedValue = initialSupply * 10**uint256(decimals);\n        _mint(initialHolder, computedValue);\n\n        // Initialize the minter and pauser roles, and renounce them\n        MaharlikaERC20Mintable.initialize(address(this));\n        _removeMinter(address(this));\n\n        ERC20Pausable.initialize(address(this));\n        _removePauser(address(this));\n\n        // Add the requested minters and pausers (this can be done after renouncing since\n        // these are the internal calls)\n        for (uint256 i = 0; i < minters.length; ++i) {\n            _addMinter(minters[i]);\n        }\n\n        for (uint256 i = 0; i < pausers.length; ++i) {\n            _addPauser(pausers[i]);\n        }\n    }\n    function removeMinter(address _address) public onlyOwner {\n        _removeMinter(_address);\n    }\n\n    function removePauser(address _address) public onlyOwner {\n        _removePauser(_address);\n    }\n\n    function setAssetAddress(address _erc721Address) public onlyOwner {\n        _setAssetAddress(_erc721Address);\n    }\n\n    function setName(string memory name) public onlyOwner {\n        _setName(name);\n    }\n\n    function setSymbol(string memory name) public onlyOwner {\n        _setSymbol(name);\n    }\n\n    function increaseTotalSupply(uint256 _value, address _sender)\n    external returns(bool)\n    {\n        // only the asset Address is allowed\n        require(_sender == owner(), ONLY_OWNER);\n\n        // only the allowed contract address can pass through\n        require(msg.sender == getAssetAddress(), RESTRICTED_AREA);\n        uint256 computedValue = _value * 10**uint256(decimals());\n        return mint(owner(), computedValue, _sender);\n    }\n\n    function decreaseTotalSupply(uint256 _value, address _sender)\n    external returns(bool)\n    {\n        // only the asset Address is allowed\n        require(_sender == owner(), ONLY_OWNER);\n\n        // only the allowed contract address can pass through\n        require(msg.sender == getAssetAddress(), RESTRICTED_AREA);\n\n        require(_value < balanceOf(owner()), \"Assets being removed is larger than the supplier\");\n        return burn(owner(), _value, _sender);\n    }\n\n\n    uint256[50] private ______gap;\n}\n",
  "sourcePath": "C:/Users/ernan/Documents/Clients/maharlika/Developments/tokens/MHLK/contracts/MaharlikaCoin.sol",
  "compiler": {
    "name": "solc",
    "version": "0.5.7+commit.6da8b019.Emscripten.clang"
  },
  "schemaVersion": "3.0.12",
  "updatedAt": "2019-08-29T10:28:18.881Z",
  "devdoc": {
    "methods": {
      "allowance(address,address)": {
        "details": "Function to check the amount of tokens that an owner allowed to a spender.",
        "params": {
          "owner": "address The address which owns the funds.",
          "spender": "address The address which will spend the funds."
        },
        "return": "A uint256 specifying the amount of tokens still available for the spender."
      },
      "balanceOf(address)": {
        "details": "Gets the balance of the specified address.",
        "params": {
          "owner": "The address to query the balance of."
        },
        "return": "A uint256 representing the amount owned by the passed address."
      },
      "burn(address,uint256,address)": {
        "details": "Function to burn tokens",
        "params": {
          "to": "The address that will receive the minted tokens.",
          "value": "The amount of tokens to mint."
        },
        "return": "A boolean that indicates if the operation was successful."
      },
      "decimals()": {
        "return": "the number of decimals of the token."
      },
      "initialize(address)": {
        "details": "The Ownable constructor sets the original `owner` of the contract to the sender account."
      },
      "isOwner()": {
        "return": "true if `msg.sender` is the owner of the contract."
      },
      "mint(address,uint256,address)": {
        "details": "Function to mint tokens",
        "params": {
          "to": "The address that will receive the minted tokens.",
          "value": "The amount of tokens to mint."
        },
        "return": "A boolean that indicates if the operation was successful."
      },
      "name()": {
        "return": "the name of the token."
      },
      "owner()": {
        "return": "the address of the owner."
      },
      "pause()": {
        "details": "called by the owner to pause, triggers stopped state"
      },
      "paused()": {
        "return": "true if the contract is paused, false otherwise."
      },
      "renounceOwnership()": {
        "details": "Allows the current owner to relinquish control of the contract. It will not be possible to call the functions with the `onlyOwner` modifier anymore."
      },
      "symbol()": {
        "return": "the symbol of the token."
      },
      "totalSupply()": {
        "details": "Total number of tokens in existence"
      },
      "transferOwnership(address)": {
        "details": "Allows the current owner to transfer control of the contract to a newOwner.",
        "params": {
          "newOwner": "The address to transfer ownership to."
        }
      },
      "unpause()": {
        "details": "called by the owner to unpause, returns to normal state"
      }
    }
  },
  "userdoc": {
    "methods": {
      "renounceOwnership()": {
        "notice": "Renouncing ownership will leave the contract without an owner, thereby removing any functionality that is only available to the owner."
      }
    }
  }
}